{
  "contractName": "MTP",
  "abi": [
    {
      "anonymous": false,
      "inputs": [
        {
          "indexed": true,
          "internalType": "address",
          "name": "stakerAddress",
          "type": "address"
        },
        {
          "indexed": true,
          "internalType": "uint256",
          "name": "numberOfStakers",
          "type": "uint256"
        }
      ],
      "name": "StakerAdded",
      "type": "event"
    },
    {
      "anonymous": false,
      "inputs": [
        {
          "indexed": true,
          "internalType": "address",
          "name": "_tokenContract",
          "type": "address"
        }
      ],
      "name": "TokenAdded",
      "type": "event"
    },
    {
      "constant": true,
      "inputs": [],
      "name": "ERC20Interface",
      "outputs": [
        {
          "internalType": "contract ERC20",
          "name": "",
          "type": "address"
        }
      ],
      "payable": false,
      "stateMutability": "view",
      "type": "function"
    },
    {
      "constant": true,
      "inputs": [
        {
          "internalType": "address",
          "name": "",
          "type": "address"
        }
      ],
      "name": "stakers",
      "outputs": [
        {
          "internalType": "address",
          "name": "staker_Address_",
          "type": "address"
        },
        {
          "internalType": "int256",
          "name": "staker_Stake_Balance_",
          "type": "int256"
        }
      ],
      "payable": false,
      "stateMutability": "view",
      "type": "function"
    },
    {
      "constant": true,
      "inputs": [
        {
          "internalType": "address",
          "name": "",
          "type": "address"
        }
      ],
      "name": "tokens",
      "outputs": [
        {
          "internalType": "address",
          "name": "token_Address_",
          "type": "address"
        },
        {
          "internalType": "uint256",
          "name": "total_Staked_Tokens_",
          "type": "uint256"
        },
        {
          "internalType": "uint256",
          "name": "number_Token_Stakers_",
          "type": "uint256"
        },
        {
          "internalType": "uint256",
          "name": "token_Stake_Balance_",
          "type": "uint256"
        }
      ],
      "payable": false,
      "stateMutability": "view",
      "type": "function"
    },
    {
      "constant": false,
      "inputs": [
        {
          "internalType": "address",
          "name": "token_",
          "type": "address"
        },
        {
          "internalType": "address",
          "name": "to_",
          "type": "address"
        },
        {
          "internalType": "uint256",
          "name": "amount_",
          "type": "uint256"
        }
      ],
      "name": "mtpTransfer",
      "outputs": [],
      "payable": false,
      "stateMutability": "nonpayable",
      "type": "function"
    },
    {
      "constant": false,
      "inputs": [
        {
          "internalType": "address",
          "name": "contractAddress",
          "type": "address"
        },
        {
          "internalType": "address",
          "name": "tokenRecipient",
          "type": "address"
        }
      ],
      "name": "addToken",
      "outputs": [],
      "payable": false,
      "stateMutability": "nonpayable",
      "type": "function"
    },
    {
      "constant": false,
      "inputs": [
        {
          "internalType": "address",
          "name": "stakerAddress_",
          "type": "address"
        }
      ],
      "name": "addStaker",
      "outputs": [
        {
          "internalType": "uint256",
          "name": "numStakers",
          "type": "uint256"
        }
      ],
      "payable": false,
      "stateMutability": "nonpayable",
      "type": "function"
    }
  ],
  "bytecode": "0x608060405234801561001057600080fd5b50610af6806100206000396000f3fe608060405234801561001057600080fd5b50600436106100625760003560e01c80631bbc4b83146100675780632466696e146100b15780635476bd72146101095780639168ae721461016d578063e4860339146101f8578063f0b845df14610291575b600080fd5b61006f6102ff565b604051808273ffffffffffffffffffffffffffffffffffffffff1673ffffffffffffffffffffffffffffffffffffffff16815260200191505060405180910390f35b6100f3600480360360208110156100c757600080fd5b81019080803573ffffffffffffffffffffffffffffffffffffffff169060200190929190505050610325565b6040518082815260200191505060405180910390f35b61016b6004803603604081101561011f57600080fd5b81019080803573ffffffffffffffffffffffffffffffffffffffff169060200190929190803573ffffffffffffffffffffffffffffffffffffffff1690602001909291905050506103f3565b005b6101af6004803603602081101561018357600080fd5b81019080803573ffffffffffffffffffffffffffffffffffffffff1690602001909291905050506105c0565b604051808373ffffffffffffffffffffffffffffffffffffffff1673ffffffffffffffffffffffffffffffffffffffff1681526020018281526020019250505060405180910390f35b61023a6004803603602081101561020e57600080fd5b81019080803573ffffffffffffffffffffffffffffffffffffffff169060200190929190505050610604565b604051808573ffffffffffffffffffffffffffffffffffffffff1673ffffffffffffffffffffffffffffffffffffffff16815260200184815260200183815260200182815260200194505050505060405180910390f35b6102fd600480360360608110156102a757600080fd5b81019080803573ffffffffffffffffffffffffffffffffffffffff169060200190929190803573ffffffffffffffffffffffffffffffffffffffff16906020019092919080359060200190929190505050610654565b005b600260009054906101000a900473ffffffffffffffffffffffffffffffffffffffff1681565b6000808060010191505060405180604001604052808373ffffffffffffffffffffffffffffffffffffffff1681526020016000815250600160008473ffffffffffffffffffffffffffffffffffffffff1673ffffffffffffffffffffffffffffffffffffffff16815260200190815260200160002060008201518160000160006101000a81548173ffffffffffffffffffffffffffffffffffffffff021916908373ffffffffffffffffffffffffffffffffffffffff16021790555060208201518160010155905050919050565b60008060008473ffffffffffffffffffffffffffffffffffffffff1673ffffffffffffffffffffffffffffffffffffffff1681526020019081526020016000209050828160000160006101000a81548173ffffffffffffffffffffffffffffffffffffffff021916908373ffffffffffffffffffffffffffffffffffffffff16021790555060008160010181905550600081600201819055506000816003018190555080600401600160008473ffffffffffffffffffffffffffffffffffffffff1673ffffffffffffffffffffffffffffffffffffffff168152602001908152602001600020908060018154018082558091505090600182039060005260206000209060020201600090919290919091506000820160009054906101000a900473ffffffffffffffffffffffffffffffffffffffff168160000160006101000a81548173ffffffffffffffffffffffffffffffffffffffff021916908373ffffffffffffffffffffffffffffffffffffffff160217905550600182015481600101555050508273ffffffffffffffffffffffffffffffffffffffff167f784c8f4dbf0ffedd6e72c76501c545a70f8b203b30a26ce542bf92ba87c248a460405160405180910390a2505050565b60016020528060005260406000206000915090508060000160009054906101000a900473ffffffffffffffffffffffffffffffffffffffff16908060010154905082565b60006020528060005260406000206000915090508060000160009054906101000a900473ffffffffffffffffffffffffffffffffffffffff16908060010154908060020154908060030154905084565b60003390508273ffffffffffffffffffffffffffffffffffffffff16600160008573ffffffffffffffffffffffffffffffffffffffff1673ffffffffffffffffffffffffffffffffffffffff16815260200190815260200160002060000160009054906101000a900473ffffffffffffffffffffffffffffffffffffffff1673ffffffffffffffffffffffffffffffffffffffff16146106f9576106f783610325565b505b8373ffffffffffffffffffffffffffffffffffffffff166000808673ffffffffffffffffffffffffffffffffffffffff1673ffffffffffffffffffffffffffffffffffffffff16815260200190815260200160002060000160009054906101000a900473ffffffffffffffffffffffffffffffffffffffff1673ffffffffffffffffffffffffffffffffffffffff16146107985761079784846103f3565b5b60008060008673ffffffffffffffffffffffffffffffffffffffff1673ffffffffffffffffffffffffffffffffffffffff1681526020019081526020016000209050848160000160006101000a81548173ffffffffffffffffffffffffffffffffffffffff021916908373ffffffffffffffffffffffffffffffffffffffff16021790555082816001016000828254019250508190555080600201600081548092919060010191905055508060020154816003016000828254019250508190555060008090505b816004018054905081101561095f57600082600401828154811061087f57fe5b906000526020600020906002020160000160009054906101000a900473ffffffffffffffffffffffffffffffffffffffff1690506000829050600060018401856004018054905003905060008282039050808660040186815481106108e057fe5b90600052602060002090600202016001016000828254019250508190555080600160008673ffffffffffffffffffffffffffffffffffffffff1673ffffffffffffffffffffffffffffffffffffffff1681526020019081526020016000206001016000828254019250508190555050505050808060010191505061085f565b5084600260006101000a81548173ffffffffffffffffffffffffffffffffffffffff021916908373ffffffffffffffffffffffffffffffffffffffff160217905550600260009054906101000a900473ffffffffffffffffffffffffffffffffffffffff1673ffffffffffffffffffffffffffffffffffffffff166323b872dd8386866040518463ffffffff1660e01b8152600401808473ffffffffffffffffffffffffffffffffffffffff1673ffffffffffffffffffffffffffffffffffffffff1681526020018373ffffffffffffffffffffffffffffffffffffffff1673ffffffffffffffffffffffffffffffffffffffff1681526020018281526020019350505050602060405180830381600087803b158015610a7e57600080fd5b505af1158015610a92573d6000803e3d6000fd5b505050506040513d6020811015610aa857600080fd5b810190808051906020019092919050505050505050505056fea265627a7a723158209da75ef14f3a345889b8a6ed5df80cabe8c99dd339068b8a65d1b739103dea7464736f6c634300050c0032",
  "source": "pragma solidity 0.5.12;\r\n\r\nimport \"../node_modules/openzeppelin-solidity/contracts/token/ERC20/ERC20.sol\";\r\n\r\n\r\ncontract MTP {\r\n\r\n\r\n    /**\r\n    * @dev Details of each transfer\r\n    * @param contract_ contract address of ER20 token to transfer\r\n    * @param to_ receiving account\r\n    * @param amount_ number of tokens to transfer to_ account\r\n    * @param failed_ if transfer was successful or not */\r\n\r\n    //  struct Transfer {\r\n    //   address contract_;\r\n    //   address to_;\r\n    //   uint amount_;\r\n    //   bool failed_;\r\n    //  }\r\n\r\n    struct Token {\r\n        address token_Address_;\r\n        uint total_Staked_Tokens_;  //update on new stake deposits/withdraws of fungible tokens in/out of mtp network\r\n        uint number_Token_Stakers_;\r\n        uint token_Stake_Balance_;\r\n        Staker[] token_Stakers_; //mapping doesnt support multiple instances of same staker in the stakechain\r\n    }\r\n\r\n    struct Staker { //change to TokenStaker\r\n        address staker_Address_;\r\n        //  uint stakerIndex_;\r\n        int staker_Stake_Balance_; //must support negative integers\r\n    }\r\n\r\n    mapping(address => Token) public tokens;\r\n    mapping(address => Staker) public stakers;\r\n\r\n    ERC20 public ERC20Interface;\r\n\r\n  // constructor() public {  //need to inherit Ownable if used\r\n  //   owner = msg.sender;\r\n  // }\r\n\r\n/**\r\n * @dev method that handles transfer of ERC20 tokens to other address\r\n * it assumes the calling address has approved this contract * as spender\r\n * @param token_ token contract address\r\n * @param to_ beneficiary address\r\n\r\n * @param amount_ numbers of token to transfer */\r\n\r\n    function mtpTransfer(address token_, address to_, uint256 amount_) public {\r\n        address from_ = msg.sender;\r\n\r\n        if(stakers[to_].staker_Address_ != to_) {\r\n            addStaker(to_);\r\n        }\r\n\r\n\r\n        //Staker storage s = stakers[to_];\r\n        //s.staker_Address_ = to_;\r\n\r\n        if(tokens[token_].token_Address_ != token_) {\r\n            addToken(token_, to_);\r\n        }\r\n\r\n\r\n        Token storage t = tokens[token_];\r\n        t.token_Address_ = token_;\r\n        t.total_Staked_Tokens_ += amount_;\r\n        t.number_Token_Stakers_ ++;\r\n        t.token_Stake_Balance_ += t.number_Token_Stakers_;  //stakes should be abstracted to external contract or global variable?\r\n        //t.token_Stakers_.push(to_);\r\n        //t.token_Stakers_.push(s);\r\n\r\n        //update bibo balances\r\n            for(uint i = 0; i < t.token_Stakers_.length; i++) {\r\n                address currentStakerAddress = t.token_Stakers_[i].staker_Address_;\r\n                uint stakersBefore = i;\r\n                uint stakersAfter = t.token_Stakers_.length - (i + 1);\r\n                int  stakerNewStakes = int256(stakersAfter) - int256(stakersBefore);\r\n                t.token_Stakers_[i].staker_Stake_Balance_ += stakerNewStakes;\r\n                stakers[currentStakerAddress].staker_Stake_Balance_ += stakerNewStakes;\r\n            }\r\n\r\n        ERC20Interface = ERC20(token_);\r\n\r\n        ERC20Interface.transferFrom(from_, to_, amount_);\r\n        //emit mtpTransfer\r\n    }\r\n\r\n    //events\r\n    //tokenAdded\r\n    event TokenAdded(\r\n        address indexed _tokenContract\r\n        //uint indexed _numberOfTokens\r\n        //string indexed _tokenName\r\n        //fungible or nft\r\n        //symbol\r\n        //totalsupply\r\n    );\r\n\r\n\r\n    function addToken(address contractAddress, address tokenRecipient) public {\r\n        //numTokens++;\r\n        Token storage t_ = tokens[contractAddress];\r\n        t_.token_Address_ = contractAddress;\r\n        t_.total_Staked_Tokens_ = 0;\r\n        t_.number_Token_Stakers_ = 0;\r\n        t_.token_Stake_Balance_ = 0;\r\n        t_.token_Stakers_.push(stakers[tokenRecipient]); //tokenRecipient should already be initialized as Staker\r\n        // tokens[contractAddress] = Token(\r\n        //     {\r\n        //         token_Address_: contractAddress,\r\n        //         total_Staked_Tokens_: 0,\r\n        //         number_Token_Stakers_: 0,\r\n        //         token_Stake_Balance_: 0,\r\n        //         token_Stakers_: [Staker(contractAddress, 0)]\r\n        //     }\r\n        // );\r\n        emit TokenAdded(contractAddress);\r\n    }\r\n\r\n    event StakerAdded(\r\n        address indexed stakerAddress,\r\n        uint indexed numberOfStakers\r\n    );\r\n\r\n    function addStaker(address stakerAddress_) public returns(uint numStakers){\r\n        numStakers++;\r\n        stakers[stakerAddress_] = Staker(\r\n            {\r\n                staker_Address_: stakerAddress_,\r\n                staker_Stake_Balance_: 0\r\n            }\r\n        );\r\n    }\r\n\r\n}\r\n\r\n//events\r\n  //stakerAdded\r\n  //newMTPTransfer\r\n  //newMTPNetworkDeployed",
  "sourcePath": "C:/Users/wadet/Documents/dapps/er20Controller/ozToken2/contracts/MTP.sol",
  "compiler": {
    "name": "solc",
    "version": "0.5.12+commit.7709ece9.Emscripten.clang"
  },
  "schemaVersion": "3.0.20",
  "updatedAt": "2020-01-15T03:24:17.689Z",
  "devdoc": {
    "methods": {
      "mtpTransfer(address,address,uint256)": {
        "details": "method that handles transfer of ERC20 tokens to other address it assumes the calling address has approved this contract * as spender",
        "params": {
          "amount_": "numbers of token to transfer ",
          "to_": "beneficiary address",
          "token_": "token contract address"
        }
      }
    }
  },
  "userdoc": {
    "methods": {}
  }
}