{
  "contractName": "MTP",
  "abi": [
    {
      "anonymous": false,
      "inputs": [
        {
          "indexed": true,
          "internalType": "address",
          "name": "stakerAddress",
          "type": "address"
        },
        {
          "indexed": true,
          "internalType": "uint256",
          "name": "numberOfStakers",
          "type": "uint256"
        }
      ],
      "name": "StakerAdded",
      "type": "event"
    },
    {
      "anonymous": false,
      "inputs": [
        {
          "indexed": true,
          "internalType": "address",
          "name": "_tokenContract",
          "type": "address"
        }
      ],
      "name": "TokenAdded",
      "type": "event"
    },
    {
      "constant": true,
      "inputs": [],
      "name": "ERC20Interface",
      "outputs": [
        {
          "internalType": "contract ERC20",
          "name": "",
          "type": "address"
        }
      ],
      "payable": false,
      "stateMutability": "view",
      "type": "function"
    },
    {
      "constant": true,
      "inputs": [],
      "name": "ERC721Interface",
      "outputs": [
        {
          "internalType": "contract IERC721",
          "name": "",
          "type": "address"
        }
      ],
      "payable": false,
      "stateMutability": "view",
      "type": "function"
    },
    {
      "constant": true,
      "inputs": [
        {
          "internalType": "address",
          "name": "",
          "type": "address"
        }
      ],
      "name": "balances",
      "outputs": [
        {
          "internalType": "int256",
          "name": "",
          "type": "int256"
        }
      ],
      "payable": false,
      "stateMutability": "view",
      "type": "function"
    },
    {
      "constant": true,
      "inputs": [
        {
          "internalType": "uint256",
          "name": "",
          "type": "uint256"
        }
      ],
      "name": "nftokens",
      "outputs": [
        {
          "internalType": "address",
          "name": "token_Address_",
          "type": "address"
        },
        {
          "internalType": "uint256",
          "name": "token_id_",
          "type": "uint256"
        },
        {
          "internalType": "uint256",
          "name": "token_Stake_Balance_",
          "type": "uint256"
        }
      ],
      "payable": false,
      "stateMutability": "view",
      "type": "function"
    },
    {
      "constant": true,
      "inputs": [
        {
          "internalType": "address",
          "name": "",
          "type": "address"
        }
      ],
      "name": "stakers",
      "outputs": [
        {
          "internalType": "address",
          "name": "staker_Address_",
          "type": "address"
        },
        {
          "internalType": "int256",
          "name": "staker_Stake_Balance_",
          "type": "int256"
        }
      ],
      "payable": false,
      "stateMutability": "view",
      "type": "function"
    },
    {
      "constant": true,
      "inputs": [
        {
          "internalType": "uint256",
          "name": "",
          "type": "uint256"
        },
        {
          "internalType": "uint256",
          "name": "",
          "type": "uint256"
        }
      ],
      "name": "tokenStakers",
      "outputs": [
        {
          "internalType": "address",
          "name": "",
          "type": "address"
        }
      ],
      "payable": false,
      "stateMutability": "view",
      "type": "function"
    },
    {
      "constant": true,
      "inputs": [
        {
          "internalType": "address",
          "name": "",
          "type": "address"
        }
      ],
      "name": "tokens",
      "outputs": [
        {
          "internalType": "address",
          "name": "token_Address_",
          "type": "address"
        },
        {
          "internalType": "uint256",
          "name": "token_id_",
          "type": "uint256"
        },
        {
          "internalType": "uint256",
          "name": "token_Stake_Balance_",
          "type": "uint256"
        }
      ],
      "payable": false,
      "stateMutability": "view",
      "type": "function"
    },
    {
      "constant": false,
      "inputs": [
        {
          "internalType": "address",
          "name": "tokenContract_",
          "type": "address"
        },
        {
          "internalType": "address",
          "name": "to_",
          "type": "address"
        },
        {
          "internalType": "uint256",
          "name": "tokenId_",
          "type": "uint256"
        }
      ],
      "name": "nfMTPTransfer",
      "outputs": [],
      "payable": false,
      "stateMutability": "nonpayable",
      "type": "function"
    },
    {
      "constant": false,
      "inputs": [
        {
          "internalType": "address",
          "name": "contractAddress",
          "type": "address"
        },
        {
          "internalType": "address",
          "name": "tokenOwner",
          "type": "address"
        },
        {
          "internalType": "uint256",
          "name": "tokenId",
          "type": "uint256"
        }
      ],
      "name": "depositNonFungibleToken",
      "outputs": [],
      "payable": false,
      "stateMutability": "nonpayable",
      "type": "function"
    },
    {
      "constant": false,
      "inputs": [
        {
          "internalType": "address",
          "name": "stakerAddress_",
          "type": "address"
        }
      ],
      "name": "addStaker",
      "outputs": [],
      "payable": false,
      "stateMutability": "nonpayable",
      "type": "function"
    },
    {
      "constant": false,
      "inputs": [
        {
          "internalType": "uint256",
          "name": "tokenId",
          "type": "uint256"
        }
      ],
      "name": "getStakeChainLength",
      "outputs": [
        {
          "internalType": "uint256",
          "name": "",
          "type": "uint256"
        }
      ],
      "payable": false,
      "stateMutability": "nonpayable",
      "type": "function"
    }
  ],
  "bytecode": "0x608060405234801561001057600080fd5b50610f27806100206000396000f3fe608060405234801561001057600080fd5b50600436106100a95760003560e01c806351eb53101161007157806351eb53101461027a578063904fa5a7146102bc5780639168ae721461032a578063999d2983146103b5578063c14ccd1e146103ff578063e48603391461047b576100a9565b8063181b2c7b146100ae5780631bbc4b831461011c5780632466696e1461016657806327e235e3146101aa5780634cbe336a14610202575b600080fd5b61011a600480360360608110156100c457600080fd5b81019080803573ffffffffffffffffffffffffffffffffffffffff169060200190929190803573ffffffffffffffffffffffffffffffffffffffff1690602001909291908035906020019092919050505061050d565b005b61012461080b565b604051808273ffffffffffffffffffffffffffffffffffffffff1673ffffffffffffffffffffffffffffffffffffffff16815260200191505060405180910390f35b6101a86004803603602081101561017c57600080fd5b81019080803573ffffffffffffffffffffffffffffffffffffffff169060200190929190505050610831565b005b6101ec600480360360208110156101c057600080fd5b81019080803573ffffffffffffffffffffffffffffffffffffffff169060200190929190505050610938565b6040518082815260200191505060405180910390f35b6102386004803603604081101561021857600080fd5b810190808035906020019092919080359060200190929190505050610950565b604051808273ffffffffffffffffffffffffffffffffffffffff1673ffffffffffffffffffffffffffffffffffffffff16815260200191505060405180910390f35b6102a66004803603602081101561029057600080fd5b810190808035906020019092919050505061099b565b6040518082815260200191505060405180910390f35b610328600480360360608110156102d257600080fd5b81019080803573ffffffffffffffffffffffffffffffffffffffff169060200190929190803573ffffffffffffffffffffffffffffffffffffffff169060200190929190803590602001909291905050506109bb565b005b61036c6004803603602081101561034057600080fd5b81019080803573ffffffffffffffffffffffffffffffffffffffff169060200190929190505050610c5a565b604051808373ffffffffffffffffffffffffffffffffffffffff1673ffffffffffffffffffffffffffffffffffffffff1681526020018281526020019250505060405180910390f35b6103bd610c9e565b604051808273ffffffffffffffffffffffffffffffffffffffff1673ffffffffffffffffffffffffffffffffffffffff16815260200191505060405180910390f35b61042b6004803603602081101561041557600080fd5b8101908080359060200190929190505050610cc4565b604051808473ffffffffffffffffffffffffffffffffffffffff1673ffffffffffffffffffffffffffffffffffffffff168152602001838152602001828152602001935050505060405180910390f35b6104bd6004803603602081101561049157600080fd5b81019080803573ffffffffffffffffffffffffffffffffffffffff169060200190929190505050610d0e565b604051808473ffffffffffffffffffffffffffffffffffffffff1673ffffffffffffffffffffffffffffffffffffffff168152602001838152602001828152602001935050505060405180910390f35b61051681610d58565b61056b576040517f08c379a0000000000000000000000000000000000000000000000000000000008152600401808060200182810382526036815260200180610ebd6036913960400191505060405180910390fd5b60003390508273ffffffffffffffffffffffffffffffffffffffff16600160008573ffffffffffffffffffffffffffffffffffffffff1673ffffffffffffffffffffffffffffffffffffffff16815260200190815260200160002060000160009054906101000a900473ffffffffffffffffffffffffffffffffffffffff1673ffffffffffffffffffffffffffffffffffffffff161461060f5761060e83610831565b5b6000600260008481526020019081526020016000209050600460008481526020019081526020016000208490806001815401808255809150509060018203906000526020600020016000909192909190916101000a81548173ffffffffffffffffffffffffffffffffffffffff021916908373ffffffffffffffffffffffffffffffffffffffff16021790555050600460008481526020019081526020016000208054905081600201600082825401925050819055506106ce83610d7f565b84600660006101000a81548173ffffffffffffffffffffffffffffffffffffffff021916908373ffffffffffffffffffffffffffffffffffffffff160217905550600660009054906101000a900473ffffffffffffffffffffffffffffffffffffffff1673ffffffffffffffffffffffffffffffffffffffff166342842e0e8386866040518463ffffffff1660e01b8152600401808473ffffffffffffffffffffffffffffffffffffffff1673ffffffffffffffffffffffffffffffffffffffff1681526020018373ffffffffffffffffffffffffffffffffffffffff1673ffffffffffffffffffffffffffffffffffffffff1681526020018281526020019350505050600060405180830381600087803b1580156107ec57600080fd5b505af1158015610800573d6000803e3d6000fd5b505050505050505050565b600560009054906101000a900473ffffffffffffffffffffffffffffffffffffffff1681565b6000600360008373ffffffffffffffffffffffffffffffffffffffff1673ffffffffffffffffffffffffffffffffffffffff1681526020019081526020016000208190555060405180604001604052808273ffffffffffffffffffffffffffffffffffffffff1681526020016000815250600160008373ffffffffffffffffffffffffffffffffffffffff1673ffffffffffffffffffffffffffffffffffffffff16815260200190815260200160002060008201518160000160006101000a81548173ffffffffffffffffffffffffffffffffffffffff021916908373ffffffffffffffffffffffffffffffffffffffff1602179055506020820151816001015590505050565b60036020528060005260406000206000915090505481565b6004602052816000526040600020818154811061096957fe5b906000526020600020016000915091509054906101000a900473ffffffffffffffffffffffffffffffffffffffff1681565b600060046000838152602001908152602001600020805490509050919050565b8173ffffffffffffffffffffffffffffffffffffffff16600160008473ffffffffffffffffffffffffffffffffffffffff1673ffffffffffffffffffffffffffffffffffffffff16815260200190815260200160002060000160009054906101000a900473ffffffffffffffffffffffffffffffffffffffff1673ffffffffffffffffffffffffffffffffffffffff1614610a5a57610a5982610831565b5b8273ffffffffffffffffffffffffffffffffffffffff16600160008573ffffffffffffffffffffffffffffffffffffffff1673ffffffffffffffffffffffffffffffffffffffff16815260200190815260200160002060000160009054906101000a900473ffffffffffffffffffffffffffffffffffffffff1673ffffffffffffffffffffffffffffffffffffffff1614610af957610af883610831565b5b6000600260008381526020019081526020016000209050838160000160006101000a81548173ffffffffffffffffffffffffffffffffffffffff021916908373ffffffffffffffffffffffffffffffffffffffff16021790555081816001018190555060018160020181905550600460008381526020019081526020016000208490806001815401808255809150509060018203906000526020600020016000909192909190916101000a81548173ffffffffffffffffffffffffffffffffffffffff021916908373ffffffffffffffffffffffffffffffffffffffff16021790555050600460008381526020019081526020016000208390806001815401808255809150509060018203906000526020600020016000909192909190916101000a81548173ffffffffffffffffffffffffffffffffffffffff021916908373ffffffffffffffffffffffffffffffffffffffff1602179055505050505050565b60016020528060005260406000206000915090508060000160009054906101000a900473ffffffffffffffffffffffffffffffffffffffff16908060010154905082565b600660009054906101000a900473ffffffffffffffffffffffffffffffffffffffff1681565b60026020528060005260406000206000915090508060000160009054906101000a900473ffffffffffffffffffffffffffffffffffffffff16908060010154908060020154905083565b60006020528060005260406000206000915090508060000160009054906101000a900473ffffffffffffffffffffffffffffffffffffffff16908060010154908060020154905083565b60008060026000848152602001908152602001600020600101549050828114915050919050565b606060046000838152602001908152602001600020805480602002602001604051908101604052809291908181526020018280548015610e1457602002820191906000526020600020905b8160009054906101000a900473ffffffffffffffffffffffffffffffffffffffff1673ffffffffffffffffffffffffffffffffffffffff1681526020019060010190808311610dca575b5050505050905060008090505b8151811015610eb7576000828281518110610e3857fe5b60200260200101519050600082905060006001840185510390506000828203905080600360008673ffffffffffffffffffffffffffffffffffffffff1673ffffffffffffffffffffffffffffffffffffffff16815260200190815260200160002060008282540192505081905550505050508080600101915050610e21565b50505056fe6e6f6e2066756e6769626c65207472616e736665723a206d757374206465706f73697420746f6b656e20746f204d5450206669727374a265627a7a723158209d4e9d0b7c0a524515420d6698bad9a8dd2976a27da41f722600aa188ccb174164736f6c634300050c0032",
  "source": "pragma solidity 0.5.12;\r\n\r\nimport \"../node_modules/openzeppelin-solidity/contracts/token/ERC20/ERC20.sol\";\r\nimport \"../node_modules/openzeppelin-solidity/contracts/token/ERC721/IERC721.sol\";\r\n\r\n\r\ncontract MTP {\r\n\r\n\r\n    /**\r\n    * @dev Details of each transfer\r\n    * @param contract_ contract address of ER20 token to transfer\r\n    * @param to_ receiving account\r\n    * @param amount_ number of tokens to transfer to_ account\r\n    * @param failed_ if transfer was successful or not */\r\n\r\n    //  struct Transfer {\r\n    //   address contract_;\r\n    //   address to_;\r\n    //   uint amount_;\r\n    //   bool failed_;\r\n    //  }\r\n\r\n    struct Staker { //change to TokenStaker\r\n        address staker_Address_; //this is redundant. can replace with balances mapping\r\n        //  uint stakerIndex_;\r\n        int staker_Stake_Balance_; //must support negative integers\r\n    }\r\n\r\n    struct Token {\r\n        address token_Address_; //this is redundant\r\n        uint256 token_id_; //for nft tokens\r\n        //uint total_Staked_Tokens_;  //update on new stake deposits/withdraws of fungible tokens in/out of mtp network\r\n        //uint number_Token_Stakers_;\r\n        uint token_Stake_Balance_;\r\n        //Staker[] token_Stakers_; //mapping doesnt support multiple instances of same staker in the stakechain\r\n        //mapping(address => Staker[]) token_Stakers_;\r\n        //mapping(uint256 => address) staker_Index_;\r\n    }\r\n\r\n\r\n    mapping(address => Token) public tokens;\r\n    mapping(address => Staker) public stakers;\r\n    mapping(uint256 => Token) public nftokens;//maps token id to token struct\r\n    mapping(address => int256) public balances; //bibo balances. can be positive or negative;\r\n    mapping(uint256 => address[]) public tokenStakers;  //maps a token id to an array of staker addresses\r\n\r\n    ERC20 public ERC20Interface;\r\n    IERC721 public ERC721Interface;\r\n\r\n  // constructor() public {  //need to inherit Ownable if used\r\n  //   owner = msg.sender;\r\n  // }\r\n\r\n\r\n    function nfMTPTransfer(address tokenContract_, address to_, uint256 tokenId_) public {\r\n        require(_isMTPItem(tokenId_), \"non fungible transfer: must deposit token to MTP first\");\r\n\r\n        address from_ = msg.sender;\r\n\r\n        if(stakers[to_].staker_Address_ != to_) {\r\n            addStaker(to_);\r\n        }\r\n\r\n        Token storage t = nftokens[tokenId_];\r\n        //t.token_Stakers_[to_].push(stakers[to_]);\r\n        //t.staker_Index_[t.number_Token_Stakers_] = to_;\r\n        //t.number_Token_Stakers_ ++;\r\n\r\n        tokenStakers[tokenId_].push(to_);\r\n        t.token_Stake_Balance_ += tokenStakers[tokenId_].length;\r\n        updateBiboBalances(tokenId_);\r\n\r\n        ERC721Interface = IERC721(tokenContract_);\r\n        //ERC721Interface.approve(from_, tokenId_);\r\n        ERC721Interface.safeTransferFrom(from_, to_, tokenId_);\r\n    }\r\n\r\n\r\n    // function mtpTransfer(address token_, address to_, uint256 amount_) public {\r\n    //     address from_ = msg.sender;\r\n\r\n    //     if(stakers[from_].staker_Address_ != from_) {\r\n    //         addStaker(from_);\r\n    //     }\r\n\r\n    //     if(stakers[to_].staker_Address_ != to_) {\r\n    //         addStaker(to_);\r\n    //     }\r\n\r\n\r\n    //     //Staker storage s = stakers[to_];\r\n    //     //s.staker_Address_ = to_; not push stakers when stakers already exist\r\n\r\n    //     if(tokens[token_].token_Address_ != token_) {\r\n    //         addToken(token_, from_, to_);\r\n    //     } else {\r\n    //         Token storage t = tokens[token_];\r\n    //         t.token_Stakers_[to_].push(stakers[to_]);\r\n    //         t.number_Token_Stakers_ ++;\r\n    //         t.token_Stake_Balance_ += t.number_Token_Stakers_;  //stakes should be abstracted to external contract or global variable?\r\n    //     }\r\n\r\n\r\n    //     Token storage t = tokens[token_];\r\n    //     t.total_Staked_Tokens_ += amount_;  //this does not equal the circulating supply since\r\n    //     //we do not actually index the total number of fungible tokens deposited. but rather #tokens * #transfers\r\n\r\n    //     //update bibo balances\r\n    //         for(uint i = 0; i < t.number_Token_Stakers_; i++) {\r\n    //             address currentStakerAddress = t.staker_Index_[int256(i)];\r\n    //             uint stakersBefore = i;\r\n    //             uint stakersAfter = t.number_Token_Stakers_ - (i + 1);\r\n    //             int256  stakerNewStakes = int256(stakersAfter) - int256(stakersBefore);\r\n    //             balances[currentStakerAddress] += stakerNewStakes;\r\n    //             t.token_Stakers_[i].staker_Stake_Balance_ += stakerNewStakes;\r\n    //             stakers[currentStakerAddress].staker_Stake_Balance_ += stakerNewStakes;\r\n    //         }\r\n\r\n    //     ERC20Interface = ERC20(token_);\r\n\r\n    //     ERC20Interface.transferFrom(from_, to_, amount_);\r\n    //     //emit mtpTransfer\r\n    // }\r\n\r\n    //events\r\n    //tokenAdded\r\n    event TokenAdded(\r\n        address indexed _tokenContract\r\n        //uint indexed _numberOfTokens\r\n        //string indexed _tokenName\r\n        //fungible or nft\r\n        //symbol\r\n        //totalsupply\r\n    );\r\n\r\n\r\n    // function addToken(address contractAddress, address tokenSender, address tokenRecipient) public {\r\n    //     //numTokens++;\r\n    //     Token storage t_ = tokens[contractAddress];\r\n    //     t_.token_Address_ = contractAddress;\r\n    //     t_.total_Staked_Tokens_ = 0;\r\n    //     t_.number_Token_Stakers_ = 2;\r\n    //     t_.token_Stake_Balance_ = 1;\r\n    //     t_.token_Stakers_.push(stakers[tokenSender]); //tokenRecipient should already be initialized as Staker\r\n    //     t_.token_Stakers_.push(stakers[tokenRecipient]);\r\n    //     // tokens[contractAddress] = Token(\r\n    //     //     {\r\n    //     //         token_Address_: contractAddress,\r\n    //     //         total_Staked_Tokens_: 0,\r\n    //     //         number_Token_Stakers_: 0,\r\n    //     //         token_Stake_Balance_: 0,\r\n    //     //         token_Stakers_: [Staker(contractAddress, 0)]\r\n    //     //     }\r\n    //     // );\r\n    //     emit TokenAdded(contractAddress);\r\n    // }\r\n\r\n    // function addToken(address contractAddress, address tokenSender, address tokenRecipient, uint256 tokenId) public {\r\n    //     Token storage t_ = nftokens[tokenId];\r\n    //     t_.token_Address_ = contractAddress;\r\n    //     t_.token_id_ = tokenId;\r\n    //     //t_.total_Staked_Tokens_ = 0;\r\n    //     t_.number_Token_Stakers_ = 2;\r\n    //     t_.token_Stake_Balance_ = 1;\r\n    //     t_.token_Stakers_.push(stakers[tokenSender]); //tokenRecipient should already be initialized as Staker\r\n    //     t_.token_Stakers_.push(stakers[tokenRecipient]);\r\n    //     // tokens[contractAddress] = Token(\r\n    //     //     {\r\n    //     //         token_Address_: contractAddress,\r\n    //     //         total_Staked_Tokens_: 0,\r\n    //     //         number_Token_Stakers_: 0,\r\n    //     //         token_Stake_Balance_: 0,\r\n    //     //         token_Stakers_: [Staker(contractAddress, 0)]\r\n    //     //     }\r\n    //     // );\r\n    //     emit TokenAdded(contractAddress);\r\n    // }\r\n\r\n    function depositNonFungibleToken(address contractAddress, address tokenOwner, uint256 tokenId) public {\r\n        if(stakers[tokenOwner].staker_Address_ != tokenOwner) {\r\n            addStaker(tokenOwner);\r\n        }\r\n        if(stakers[contractAddress].staker_Address_ != contractAddress) {\r\n            addStaker(contractAddress);\r\n        }\r\n        Token storage t_ = nftokens[tokenId];\r\n        t_.token_Address_ = contractAddress;\r\n        t_.token_id_ = tokenId;\r\n        //Staker  memory owner_ = stakers[tokenOwner];\r\n        //Staker memory tokenContract_ = stakers[contractAddress];\r\n        //t_.token_Stakers_[contractAddress].push(tokenContract_);\r\n        //t_.staker_Index_[0] = contractAddress;\r\n        //t_.token_Stakers_[tokenOwner].push(owner_); //tokenRecipient should already be initialized as Staker\r\n        //t_.staker_Index_[1] = tokenOwner;\r\n        //t_.number_Token_Stakers_ = 2; //setting to 2 includes token address as root staker account and depositor/owner as second staker account\r\n        t_.token_Stake_Balance_ = 1;\r\n        tokenStakers[tokenId].push(contractAddress);\r\n        tokenStakers[tokenId].push(tokenOwner);\r\n        //emit TokenAdded(contractAddress);\r\n    }\r\n\r\n\r\n    function updateBiboBalances(uint256 tokenId) private {\r\n        //Token storage t_ = nftokens[tokenId];\r\n        address[] memory stakeChain = tokenStakers[tokenId];\r\n\r\n        for(uint i = 0; i < stakeChain.length; i++) {  // i initialized to 1 to skip over token address which is included in\r\n            address currentStakerAddress = stakeChain[i];\r\n            uint stakersBefore = i;\r\n            uint stakersAfter = stakeChain.length - (i + 1);\r\n            int  stakerNewStakes = int256(stakersAfter) - int256(stakersBefore);\r\n           // t_.token_Stakers_[currentStakerAddress].staker_Stake_Balance_ += stakerNewStakes;\r\n            balances[currentStakerAddress] += stakerNewStakes;\r\n            //stakers[currentStakerAddress].staker_Stake_Balance_ += stakerNewStakes;\r\n        }\r\n    }\r\n\r\n    event StakerAdded(\r\n        address indexed stakerAddress,\r\n        uint indexed numberOfStakers\r\n    );\r\n\r\n    function addStaker(address stakerAddress_) public {\r\n        balances[stakerAddress_] = 0;\r\n        stakers[stakerAddress_] = Staker(\r\n            {\r\n                staker_Address_: stakerAddress_,\r\n                staker_Stake_Balance_: 0\r\n            }\r\n        );\r\n    }\r\n\r\n\r\n    function _isMTPItem(uint256 tokenId) internal view returns (bool) {\r\n        uint256 existingId = nftokens[tokenId].token_id_;\r\n        return existingId == tokenId;\r\n    }\r\n\r\n    function getStakeChainLength(uint256 tokenId) public returns (uint) {\r\n        return tokenStakers[tokenId].length;\r\n    }\r\n\r\n}\r\n\r\n\r\n\r\n//events\r\n  //stakerAdded\r\n  //newMTPTransfer\r\n  //newMTPNetworkDeployed",
  "sourcePath": "C:/Users/wadet/Documents/dapps/er20Controller/ozToken2/contracts/MTP.sol",
  "compiler": {
    "name": "solc",
    "version": "0.5.12+commit.7709ece9.Emscripten.clang"
  },
  "schemaVersion": "3.0.20",
  "updatedAt": "2020-02-03T21:18:34.205Z",
  "devdoc": {
    "methods": {}
  },
  "userdoc": {
    "methods": {}
  }
}