{
  "contractName": "MTP",
  "abi": [
    {
      "constant": true,
      "inputs": [],
      "name": "ERC20Interface",
      "outputs": [
        {
          "internalType": "contract ERC20",
          "name": "",
          "type": "address"
        }
      ],
      "payable": false,
      "stateMutability": "view",
      "type": "function"
    },
    {
      "constant": true,
      "inputs": [
        {
          "internalType": "bytes32",
          "name": "",
          "type": "bytes32"
        }
      ],
      "name": "tokens",
      "outputs": [
        {
          "internalType": "address",
          "name": "",
          "type": "address"
        }
      ],
      "payable": false,
      "stateMutability": "view",
      "type": "function"
    },
    {
      "constant": true,
      "inputs": [
        {
          "internalType": "uint256",
          "name": "",
          "type": "uint256"
        }
      ],
      "name": "transactions",
      "outputs": [
        {
          "internalType": "address",
          "name": "contract_",
          "type": "address"
        },
        {
          "internalType": "address",
          "name": "to_",
          "type": "address"
        },
        {
          "internalType": "uint256",
          "name": "amount_",
          "type": "uint256"
        },
        {
          "internalType": "bool",
          "name": "failed_",
          "type": "bool"
        }
      ],
      "payable": false,
      "stateMutability": "view",
      "type": "function"
    },
    {
      "constant": false,
      "inputs": [
        {
          "internalType": "bytes32",
          "name": "symbol_",
          "type": "bytes32"
        },
        {
          "internalType": "address",
          "name": "to_",
          "type": "address"
        },
        {
          "internalType": "uint256",
          "name": "amount_",
          "type": "uint256"
        }
      ],
      "name": "transferTokens",
      "outputs": [],
      "payable": false,
      "stateMutability": "nonpayable",
      "type": "function"
    }
  ],
  "bytecode": "0x608060405234801561001057600080fd5b506104e3806100206000396000f3fe608060405234801561001057600080fd5b506004361061004c5760003560e01c80631bbc4b83146100515780631f9988c91461009b578063904194a3146100f35780639ace38c214610161575b600080fd5b610059610214565b604051808273ffffffffffffffffffffffffffffffffffffffff1673ffffffffffffffffffffffffffffffffffffffff16815260200191505060405180910390f35b6100f1600480360360608110156100b157600080fd5b8101908080359060200190929190803573ffffffffffffffffffffffffffffffffffffffff1690602001909291908035906020019092919050505061023a565b005b61011f6004803603602081101561010957600080fd5b81019080803590602001909291905050506103f1565b604051808273ffffffffffffffffffffffffffffffffffffffff1673ffffffffffffffffffffffffffffffffffffffff16815260200191505060405180910390f35b61018d6004803603602081101561017757600080fd5b8101908080359060200190929190505050610424565b604051808573ffffffffffffffffffffffffffffffffffffffff1673ffffffffffffffffffffffffffffffffffffffff1681526020018473ffffffffffffffffffffffffffffffffffffffff1673ffffffffffffffffffffffffffffffffffffffff1681526020018381526020018215151515815260200194505050505060405180910390f35b600260009054906101000a900473ffffffffffffffffffffffffffffffffffffffff1681565b60006001600085815260200190815260200160002060009054906101000a900473ffffffffffffffffffffffffffffffffffffffff16905080600260006101000a81548173ffffffffffffffffffffffffffffffffffffffff021916908373ffffffffffffffffffffffffffffffffffffffff160217905550600060405180608001604052808373ffffffffffffffffffffffffffffffffffffffff1681526020018573ffffffffffffffffffffffffffffffffffffffff168152602001848152602001600115158152509080600181540180825580915050906001820390600052602060002090600402016000909192909190915060008201518160000160006101000a81548173ffffffffffffffffffffffffffffffffffffffff021916908373ffffffffffffffffffffffffffffffffffffffff16021790555060208201518160010160006101000a81548173ffffffffffffffffffffffffffffffffffffffff021916908373ffffffffffffffffffffffffffffffffffffffff1602179055506040820151816002015560608201518160030160006101000a81548160ff02191690831515021790555050505050505050565b60016020528060005260406000206000915054906101000a900473ffffffffffffffffffffffffffffffffffffffff1681565b6000818154811061043157fe5b90600052602060002090600402016000915090508060000160009054906101000a900473ffffffffffffffffffffffffffffffffffffffff16908060010160009054906101000a900473ffffffffffffffffffffffffffffffffffffffff16908060020154908060030160009054906101000a900460ff1690508456fea265627a7a72315820785f47e205ce21361b9ab41fa17dbec1709a385ca5c96153a62d185a99e5df7c64736f6c634300050c0032",
  "source": "pragma solidity 0.5.12;\r\n\r\nimport \"../node_modules/openzeppelin-solidity/contracts/token/ERC20/ERC20.sol\";\r\n\r\n\r\ncontract MTP {\r\n\r\n  /**\r\n * @dev Details of each transfer\r\n * @param contract_ contract address of ER20 token to transfer\r\n * @param to_ receiving account\r\n  * @param amount_ number of tokens to transfer to_ account\r\n  * @param failed_ if transfer was successful or not */\r\n\r\n struct Transfer {\r\n  address contract_;\r\n  address to_;\r\n  uint amount_;\r\n  bool failed_;\r\n }\r\n\r\n\r\n   /**\r\n * @dev a list of all transfers successful or unsuccessful */\r\n\r\nTransfer[] public transactions;\r\n\r\nmapping(bytes32 => address) public tokens;\r\n\r\nERC20 public ERC20Interface;\r\n\r\n\r\n\r\n/**\r\n * @dev method that handles transfer of ERC20 tokens to other address\r\n * it assumes the calling address has approved this contract * as spender\r\n * @param symbol_ identifier mapping to a token contract address\r\n * @param to_ beneficiary address\r\n * @param amount_ numbers of token to transfer */\r\n\r\n  function transferTokens(bytes32 symbol_, address to_, uint256 amount_) public {\r\n  //require(tokens[symbol_] != 0x0);\r\n  //require(amount_ > 0);\r\n\r\n  address contract_ = tokens[symbol_];\r\n  //address from_ = msg.sender;\r\n\r\n  ERC20Interface = ERC20(contract_);\r\n\r\n  transactions.push(\r\n  Transfer({\r\n  contract_: contract_,\r\n            to_: to_,\r\n            amount_: amount_,\r\n            failed_: true\r\n  })\r\n );\r\n }\r\n}",
  "sourcePath": "C:/Users/wadet/Documents/dapps/er20Controller/ozToken2/contracts/MTP.sol",
  "compiler": {
    "name": "solc",
    "version": "0.5.12+commit.7709ece9.Emscripten.clang"
  },
  "schemaVersion": "3.0.20",
  "updatedAt": "2020-01-05T02:14:52.909Z",
  "devdoc": {
    "methods": {
      "transferTokens(bytes32,address,uint256)": {
        "details": "method that handles transfer of ERC20 tokens to other address it assumes the calling address has approved this contract * as spender",
        "params": {
          "amount_": "numbers of token to transfer ",
          "symbol_": "identifier mapping to a token contract address",
          "to_": "beneficiary address"
        }
      }
    }
  },
  "userdoc": {
    "methods": {}
  }
}