{
  "contractName": "MTP",
  "abi": [
    {
      "constant": true,
      "inputs": [],
      "name": "ERC20Interface",
      "outputs": [
        {
          "internalType": "contract ERC20",
          "name": "",
          "type": "address"
        }
      ],
      "payable": false,
      "stateMutability": "view",
      "type": "function"
    },
    {
      "constant": true,
      "inputs": [
        {
          "internalType": "address",
          "name": "",
          "type": "address"
        }
      ],
      "name": "tokens",
      "outputs": [
        {
          "internalType": "address",
          "name": "contract_",
          "type": "address"
        }
      ],
      "payable": false,
      "stateMutability": "view",
      "type": "function"
    },
    {
      "constant": false,
      "inputs": [
        {
          "internalType": "address",
          "name": "token_",
          "type": "address"
        },
        {
          "internalType": "address",
          "name": "to_",
          "type": "address"
        },
        {
          "internalType": "uint256",
          "name": "amount_",
          "type": "uint256"
        }
      ],
      "name": "mtpTransfer",
      "outputs": [],
      "payable": false,
      "stateMutability": "nonpayable",
      "type": "function"
    },
    {
      "constant": false,
      "inputs": [
        {
          "internalType": "address",
          "name": "contractAddress",
          "type": "address"
        }
      ],
      "name": "addToken",
      "outputs": [],
      "payable": false,
      "stateMutability": "nonpayable",
      "type": "function"
    }
  ],
  "bytecode": "0x608060405234801561001057600080fd5b5061051d806100206000396000f3fe608060405234801561001057600080fd5b506004361061004c5760003560e01c80631bbc4b8314610051578063d48bfca71461009b578063e4860339146100df578063f0b845df14610163575b600080fd5b6100596101d1565b604051808273ffffffffffffffffffffffffffffffffffffffff1673ffffffffffffffffffffffffffffffffffffffff16815260200191505060405180910390f35b6100dd600480360360208110156100b157600080fd5b81019080803573ffffffffffffffffffffffffffffffffffffffff1690602001909291905050506101f7565b005b610121600480360360208110156100f557600080fd5b81019080803573ffffffffffffffffffffffffffffffffffffffff1690602001909291905050506102a7565b604051808273ffffffffffffffffffffffffffffffffffffffff1673ffffffffffffffffffffffffffffffffffffffff16815260200191505060405180910390f35b6101cf6004803603606081101561017957600080fd5b81019080803573ffffffffffffffffffffffffffffffffffffffff169060200190929190803573ffffffffffffffffffffffffffffffffffffffff169060200190929190803590602001909291905050506102e5565b005b600160009054906101000a900473ffffffffffffffffffffffffffffffffffffffff1681565b60405180602001604052808273ffffffffffffffffffffffffffffffffffffffff168152506000808373ffffffffffffffffffffffffffffffffffffffff1673ffffffffffffffffffffffffffffffffffffffff16815260200190815260200160002060008201518160000160006101000a81548173ffffffffffffffffffffffffffffffffffffffff021916908373ffffffffffffffffffffffffffffffffffffffff16021790555090505050565b60006020528060005260406000206000915090508060000160009054906101000a900473ffffffffffffffffffffffffffffffffffffffff16905081565b60003390508373ffffffffffffffffffffffffffffffffffffffff166000808673ffffffffffffffffffffffffffffffffffffffff1673ffffffffffffffffffffffffffffffffffffffff16815260200190815260200160002060000160009054906101000a900473ffffffffffffffffffffffffffffffffffffffff1673ffffffffffffffffffffffffffffffffffffffff161461038857610387846101f7565b5b83600160006101000a81548173ffffffffffffffffffffffffffffffffffffffff021916908373ffffffffffffffffffffffffffffffffffffffff160217905550600160009054906101000a900473ffffffffffffffffffffffffffffffffffffffff1673ffffffffffffffffffffffffffffffffffffffff166323b872dd8285856040518463ffffffff1660e01b8152600401808473ffffffffffffffffffffffffffffffffffffffff1673ffffffffffffffffffffffffffffffffffffffff1681526020018373ffffffffffffffffffffffffffffffffffffffff1673ffffffffffffffffffffffffffffffffffffffff1681526020018281526020019350505050602060405180830381600087803b1580156104a657600080fd5b505af11580156104ba573d6000803e3d6000fd5b505050506040513d60208110156104d057600080fd5b8101908080519060200190929190505050505050505056fea265627a7a7231582091bdec7cefd501a348b4379e3e05b2ec90da8c2b70737d19d7d0b6538afb657d64736f6c634300050c0032",
  "source": "pragma solidity 0.5.12;\r\n\r\nimport \"../node_modules/openzeppelin-solidity/contracts/token/ERC20/ERC20.sol\";\r\n\r\n\r\ncontract MTP {\r\n\r\n  /**\r\n * @dev Details of each transfer\r\n * @param contract_ contract address of ER20 token to transfer\r\n * @param to_ receiving account\r\n  * @param amount_ number of tokens to transfer to_ account\r\n  * @param failed_ if transfer was successful or not */\r\n\r\n//  struct Transfer {\r\n//   address contract_;\r\n//   address to_;\r\n//   uint amount_;\r\n//   bool failed_;\r\n//  }\r\n\r\n struct Token {\r\n   address contract_;\r\n   //Staker[] stakers;\r\n   mapping (uint => Staker) stakers;\r\n }\r\n\r\n\r\n struct Staker {\r\n   address staker_;\r\n  //  uint stakerIndex_;\r\n   int balance_;\r\n }\r\n\r\n\r\n\r\n\r\n   /**\r\n * @dev a list of all transfers successful or unsuccessful */\r\n\r\n\r\n//mapping(bytes32 => address) public tokens;\r\nmapping(address => Token) public tokens;\r\n\r\n\r\n\r\nERC20 public ERC20Interface;\r\n\r\n  // constructor() public {  //need to inherit Ownable if used\r\n  //   owner = msg.sender;\r\n  // }\r\n\r\n/**\r\n * @dev method that handles transfer of ERC20 tokens to other address\r\n * it assumes the calling address has approved this contract * as spender\r\n * @param token_ token contract address\r\n * @param to_ beneficiary address\r\n * @param amount_ numbers of token to transfer */\r\n\r\n  function mtpTransfer(address token_, address to_, uint256 amount_) public {\r\n  //require(tokens[symbol_] != 0x0);\r\n  //require(amount_ > 0);\r\n\r\n  //contract_ = tokens[token_];\r\n  address from_ = msg.sender;\r\n\r\n\r\n  if(! (tokens[token_].contract_ == token_)) {\r\n    //tokens[token_] = Token(token_);\r\n    addToken(token_);\r\n  }\r\n\r\n  ERC20Interface = ERC20(token_);\r\n\r\n\r\n  ERC20Interface.transferFrom(from_, to_, amount_);\r\n\r\n  //update bibo balances\r\n  //emit mtpTransfer\r\n }\r\n\r\n  function addToken(address contractAddress) public {\r\n    //Token storage t = tokens[contractAddress];\r\n    tokens[contractAddress] = Token(contractAddress);\r\n    // t.stakers.push(Staker({\r\n    //   staker_: contractAddress,\r\n    //   balance_: 0\r\n    // }));\r\n  }\r\n\r\n}",
  "sourcePath": "C:/Users/wadet/Documents/dapps/er20Controller/ozToken2/contracts/MTP.sol",
  "compiler": {
    "name": "solc",
    "version": "0.5.12+commit.7709ece9.Emscripten.clang"
  },
  "schemaVersion": "3.0.20",
  "updatedAt": "2020-01-07T05:08:00.540Z",
  "devdoc": {
    "methods": {
      "mtpTransfer(address,address,uint256)": {
        "details": "method that handles transfer of ERC20 tokens to other address it assumes the calling address has approved this contract * as spender",
        "params": {
          "amount_": "numbers of token to transfer ",
          "to_": "beneficiary address",
          "token_": "token contract address"
        }
      }
    }
  },
  "userdoc": {
    "methods": {}
  }
}