{
  "contractName": "MTP",
  "abi": [
    {
      "anonymous": false,
      "inputs": [
        {
          "indexed": true,
          "internalType": "address",
          "name": "_tokenContract",
          "type": "address"
        },
        {
          "indexed": true,
          "internalType": "uint256",
          "name": "_numberOfTokens",
          "type": "uint256"
        }
      ],
      "name": "TokenAdded",
      "type": "event"
    },
    {
      "constant": true,
      "inputs": [],
      "name": "ERC20Interface",
      "outputs": [
        {
          "internalType": "contract ERC20",
          "name": "",
          "type": "address"
        }
      ],
      "payable": false,
      "stateMutability": "view",
      "type": "function"
    },
    {
      "constant": true,
      "inputs": [
        {
          "internalType": "address",
          "name": "",
          "type": "address"
        }
      ],
      "name": "tokens",
      "outputs": [
        {
          "internalType": "address",
          "name": "addr",
          "type": "address"
        },
        {
          "internalType": "uint256",
          "name": "numberStakers",
          "type": "uint256"
        }
      ],
      "payable": false,
      "stateMutability": "view",
      "type": "function"
    },
    {
      "constant": false,
      "inputs": [
        {
          "internalType": "address",
          "name": "token_",
          "type": "address"
        },
        {
          "internalType": "address",
          "name": "to_",
          "type": "address"
        },
        {
          "internalType": "uint256",
          "name": "amount_",
          "type": "uint256"
        }
      ],
      "name": "mtpTransfer",
      "outputs": [],
      "payable": false,
      "stateMutability": "nonpayable",
      "type": "function"
    },
    {
      "constant": false,
      "inputs": [
        {
          "internalType": "address",
          "name": "contractAddress",
          "type": "address"
        }
      ],
      "name": "addToken",
      "outputs": [
        {
          "internalType": "uint256",
          "name": "numTokens",
          "type": "uint256"
        }
      ],
      "payable": false,
      "stateMutability": "nonpayable",
      "type": "function"
    }
  ],
  "bytecode": "0x608060405234801561001057600080fd5b5061063a806100206000396000f3fe608060405234801561001057600080fd5b506004361061004c5760003560e01c80631bbc4b8314610051578063d48bfca71461009b578063e4860339146100f3578063f0b845df1461017e575b600080fd5b6100596101ec565b604051808273ffffffffffffffffffffffffffffffffffffffff1673ffffffffffffffffffffffffffffffffffffffff16815260200191505060405180910390f35b6100dd600480360360208110156100b157600080fd5b81019080803573ffffffffffffffffffffffffffffffffffffffff169060200190929190505050610212565b6040518082815260200191505060405180910390f35b6101356004803603602081101561010957600080fd5b81019080803573ffffffffffffffffffffffffffffffffffffffff169060200190929190505050610323565b604051808373ffffffffffffffffffffffffffffffffffffffff1673ffffffffffffffffffffffffffffffffffffffff1681526020018281526020019250505060405180910390f35b6101ea6004803603606081101561019457600080fd5b81019080803573ffffffffffffffffffffffffffffffffffffffff169060200190929190803573ffffffffffffffffffffffffffffffffffffffff16906020019092919080359060200190929190505050610367565b005b600160009054906101000a900473ffffffffffffffffffffffffffffffffffffffff1681565b6000808060010191505060405180604001604052808373ffffffffffffffffffffffffffffffffffffffff16815260200160008152506000808473ffffffffffffffffffffffffffffffffffffffff1673ffffffffffffffffffffffffffffffffffffffff16815260200190815260200160002060008201518160000160006101000a81548173ffffffffffffffffffffffffffffffffffffffff021916908373ffffffffffffffffffffffffffffffffffffffff16021790555060208201518160010155905050808273ffffffffffffffffffffffffffffffffffffffff167ff4c563a3ea86ff1f4275e8c207df0375a51963f2b831b7bf4da8be938d92876c60405160405180910390a3919050565b60006020528060005260406000206000915090508060000160009054906101000a900473ffffffffffffffffffffffffffffffffffffffff16908060010154905082565b60003390508373ffffffffffffffffffffffffffffffffffffffff166000808673ffffffffffffffffffffffffffffffffffffffff1673ffffffffffffffffffffffffffffffffffffffff16815260200190815260200160002060000160009054906101000a900473ffffffffffffffffffffffffffffffffffffffff1673ffffffffffffffffffffffffffffffffffffffff161461040b5761040984610212565b505b60008060008673ffffffffffffffffffffffffffffffffffffffff1673ffffffffffffffffffffffffffffffffffffffff1681526020019081526020016000209050848160000160006101000a81548173ffffffffffffffffffffffffffffffffffffffff021916908373ffffffffffffffffffffffffffffffffffffffff160217905550806001016000815480929190600101919050555084600160006101000a81548173ffffffffffffffffffffffffffffffffffffffff021916908373ffffffffffffffffffffffffffffffffffffffff160217905550600160009054906101000a900473ffffffffffffffffffffffffffffffffffffffff1673ffffffffffffffffffffffffffffffffffffffff166323b872dd8386866040518463ffffffff1660e01b8152600401808473ffffffffffffffffffffffffffffffffffffffff1673ffffffffffffffffffffffffffffffffffffffff1681526020018373ffffffffffffffffffffffffffffffffffffffff1673ffffffffffffffffffffffffffffffffffffffff1681526020018281526020019350505050602060405180830381600087803b1580156105c257600080fd5b505af11580156105d6573d6000803e3d6000fd5b505050506040513d60208110156105ec57600080fd5b810190808051906020019092919050505050505050505056fea265627a7a72315820ea024c945a33bdd47eeb47b2f6379cd471091fb9f89f1dce4ef52b41725979a964736f6c634300050c0032",
  "source": "pragma solidity 0.5.12;\r\n\r\nimport \"../node_modules/openzeppelin-solidity/contracts/token/ERC20/ERC20.sol\";\r\n\r\n\r\ncontract MTP {\r\n\r\n  /**\r\n * @dev Details of each transfer\r\n * @param contract_ contract address of ER20 token to transfer\r\n * @param to_ receiving account\r\n  * @param amount_ number of tokens to transfer to_ account\r\n  * @param failed_ if transfer was successful or not */\r\n\r\n//  struct Transfer {\r\n//   address contract_;\r\n//   address to_;\r\n//   uint amount_;\r\n//   bool failed_;\r\n//  }\r\n\r\n struct Token {\r\n   address addr;\r\n   //Staker[] stakers;\r\n   uint numberStakers;\r\n   //mapping (uint => Staker) stakers;\r\n }\r\n\r\n\r\n\r\n struct Staker {\r\n   address stakerAddress;\r\n  //  uint stakerIndex_;\r\n   int stakerBalance;\r\n }\r\n\r\n\r\n\r\n\r\n   /**\r\n * @dev a list of all transfers successful or unsuccessful */\r\n\r\n//mapping(bytes32 => address) public tokens;\r\nmapping(address => Token) public tokens;\r\n\r\n\r\n\r\nERC20 public ERC20Interface;\r\n\r\n  // constructor() public {  //need to inherit Ownable if used\r\n  //   owner = msg.sender;\r\n  // }\r\n\r\n/**\r\n * @dev method that handles transfer of ERC20 tokens to other address\r\n * it assumes the calling address has approved this contract * as spender\r\n * @param token_ token contract address\r\n * @param to_ beneficiary address\r\n\r\n * @param amount_ numbers of token to transfer */\r\n\r\n  function mtpTransfer(address token_, address to_, uint256 amount_) public {\r\n\r\n  address from_ = msg.sender;\r\n\r\n  if(! (tokens[token_].addr == token_)) {\r\n    addToken(token_);\r\n  }\r\n\r\n  Token storage t = tokens[token_];\r\n  t.addr = token_;\r\n  t.numberStakers++;\r\n\r\n  ERC20Interface = ERC20(token_);\r\n\r\n\r\n  ERC20Interface.transferFrom(from_, to_, amount_);\r\n\r\n  //update bibo balances\r\n  //emit mtpTransfer\r\n }\r\n\r\n  //events\r\n  //tokenAdded\r\n  event TokenAdded(\r\n    address indexed _tokenContract,\r\n    uint indexed _numberOfTokens\r\n    //string indexed _tokenName\r\n    //fungible or nft\r\n    //symbol\r\n    //totalsupply\r\n  );\r\n\r\n  function addToken(address contractAddress) public returns (uint numTokens){\r\n    numTokens++;\r\n    tokens[contractAddress] = Token({addr: contractAddress, numberStakers: 0});\r\n    // t.stakers.push(Staker({\r\n    //   staker_: contractAddress,\r\n    //   balance_: 0\r\n    // }));\r\n    emit TokenAdded(contractAddress, numTokens);\r\n  }\r\n\r\n}\r\n\r\n\r\n//events\r\n  //stakerAdded\r\n  //newMTPTransfer\r\n  //newMTPNetworkDeployed",
  "sourcePath": "C:/Users/wadet/Documents/dapps/er20Controller/ozToken2/contracts/MTP.sol",
  "compiler": {
    "name": "solc",
    "version": "0.5.12+commit.7709ece9.Emscripten.clang"
  },
  "schemaVersion": "3.0.20",
  "updatedAt": "2020-01-13T03:37:12.634Z",
  "devdoc": {
    "methods": {
      "mtpTransfer(address,address,uint256)": {
        "details": "method that handles transfer of ERC20 tokens to other address it assumes the calling address has approved this contract * as spender",
        "params": {
          "amount_": "numbers of token to transfer ",
          "to_": "beneficiary address",
          "token_": "token contract address"
        }
      }
    }
  },
  "userdoc": {
    "methods": {}
  }
}