{
  "contractName": "MTP",
  "abi": [
    {
      "anonymous": false,
      "inputs": [
        {
          "indexed": true,
          "internalType": "address",
          "name": "stakerAddress",
          "type": "address"
        },
        {
          "indexed": true,
          "internalType": "uint256",
          "name": "numberOfStakers",
          "type": "uint256"
        }
      ],
      "name": "StakerAdded",
      "type": "event"
    },
    {
      "anonymous": false,
      "inputs": [
        {
          "indexed": true,
          "internalType": "address",
          "name": "_tokenContract",
          "type": "address"
        }
      ],
      "name": "TokenAdded",
      "type": "event"
    },
    {
      "constant": true,
      "inputs": [],
      "name": "ERC20Interface",
      "outputs": [
        {
          "internalType": "contract ERC20",
          "name": "",
          "type": "address"
        }
      ],
      "payable": false,
      "stateMutability": "view",
      "type": "function"
    },
    {
      "constant": true,
      "inputs": [],
      "name": "ERC721Interface",
      "outputs": [
        {
          "internalType": "contract IERC721",
          "name": "",
          "type": "address"
        }
      ],
      "payable": false,
      "stateMutability": "view",
      "type": "function"
    },
    {
      "constant": true,
      "inputs": [
        {
          "internalType": "uint256",
          "name": "",
          "type": "uint256"
        }
      ],
      "name": "nftokens",
      "outputs": [
        {
          "internalType": "address",
          "name": "token_Address_",
          "type": "address"
        },
        {
          "internalType": "uint256",
          "name": "token_id_",
          "type": "uint256"
        },
        {
          "internalType": "uint256",
          "name": "total_Staked_Tokens_",
          "type": "uint256"
        },
        {
          "internalType": "uint256",
          "name": "number_Token_Stakers_",
          "type": "uint256"
        },
        {
          "internalType": "uint256",
          "name": "token_Stake_Balance_",
          "type": "uint256"
        }
      ],
      "payable": false,
      "stateMutability": "view",
      "type": "function"
    },
    {
      "constant": true,
      "inputs": [
        {
          "internalType": "address",
          "name": "",
          "type": "address"
        }
      ],
      "name": "stakers",
      "outputs": [
        {
          "internalType": "address",
          "name": "staker_Address_",
          "type": "address"
        },
        {
          "internalType": "int256",
          "name": "staker_Stake_Balance_",
          "type": "int256"
        }
      ],
      "payable": false,
      "stateMutability": "view",
      "type": "function"
    },
    {
      "constant": true,
      "inputs": [
        {
          "internalType": "address",
          "name": "",
          "type": "address"
        }
      ],
      "name": "tokens",
      "outputs": [
        {
          "internalType": "address",
          "name": "token_Address_",
          "type": "address"
        },
        {
          "internalType": "uint256",
          "name": "token_id_",
          "type": "uint256"
        },
        {
          "internalType": "uint256",
          "name": "total_Staked_Tokens_",
          "type": "uint256"
        },
        {
          "internalType": "uint256",
          "name": "number_Token_Stakers_",
          "type": "uint256"
        },
        {
          "internalType": "uint256",
          "name": "token_Stake_Balance_",
          "type": "uint256"
        }
      ],
      "payable": false,
      "stateMutability": "view",
      "type": "function"
    },
    {
      "constant": false,
      "inputs": [
        {
          "internalType": "address",
          "name": "tokenContract_",
          "type": "address"
        },
        {
          "internalType": "address",
          "name": "to_",
          "type": "address"
        },
        {
          "internalType": "uint256",
          "name": "tokenId_",
          "type": "uint256"
        }
      ],
      "name": "nfMTPTransfer",
      "outputs": [],
      "payable": false,
      "stateMutability": "nonpayable",
      "type": "function"
    },
    {
      "constant": false,
      "inputs": [
        {
          "internalType": "address",
          "name": "token_",
          "type": "address"
        },
        {
          "internalType": "address",
          "name": "to_",
          "type": "address"
        },
        {
          "internalType": "uint256",
          "name": "amount_",
          "type": "uint256"
        }
      ],
      "name": "mtpTransfer",
      "outputs": [],
      "payable": false,
      "stateMutability": "nonpayable",
      "type": "function"
    },
    {
      "constant": false,
      "inputs": [
        {
          "internalType": "address",
          "name": "contractAddress",
          "type": "address"
        },
        {
          "internalType": "address",
          "name": "tokenSender",
          "type": "address"
        },
        {
          "internalType": "address",
          "name": "tokenRecipient",
          "type": "address"
        },
        {
          "internalType": "uint256",
          "name": "tokenId",
          "type": "uint256"
        }
      ],
      "name": "addToken",
      "outputs": [],
      "payable": false,
      "stateMutability": "nonpayable",
      "type": "function"
    },
    {
      "constant": false,
      "inputs": [
        {
          "internalType": "address",
          "name": "contractAddress",
          "type": "address"
        },
        {
          "internalType": "address",
          "name": "tokenSender",
          "type": "address"
        },
        {
          "internalType": "address",
          "name": "tokenRecipient",
          "type": "address"
        }
      ],
      "name": "addToken",
      "outputs": [],
      "payable": false,
      "stateMutability": "nonpayable",
      "type": "function"
    },
    {
      "constant": false,
      "inputs": [
        {
          "internalType": "address",
          "name": "stakerAddress_",
          "type": "address"
        }
      ],
      "name": "addStaker",
      "outputs": [],
      "payable": false,
      "stateMutability": "nonpayable",
      "type": "function"
    }
  ],
  "bytecode": "0x608060405234801561001057600080fd5b5061174d806100206000396000f3fe608060405234801561001057600080fd5b506004361061009e5760003560e01c8063999d298311610066578063999d2983146102b8578063c14ccd1e14610302578063c6e85b3b1461038c578063e486033914610410578063f0b845df146104b05761009e565b8063181b2c7b146100a35780631bbc4b83146101115780632466696e1461015b5780639168ae721461019f57806391f809631461022a575b600080fd5b61010f600480360360608110156100b957600080fd5b81019080803573ffffffffffffffffffffffffffffffffffffffff169060200190929190803573ffffffffffffffffffffffffffffffffffffffff1690602001909291908035906020019092919050505061051e565b005b6101196109f2565b604051808273ffffffffffffffffffffffffffffffffffffffff1673ffffffffffffffffffffffffffffffffffffffff16815260200191505060405180910390f35b61019d6004803603602081101561017157600080fd5b81019080803573ffffffffffffffffffffffffffffffffffffffff169060200190929190505050610a18565b005b6101e1600480360360208110156101b557600080fd5b81019080803573ffffffffffffffffffffffffffffffffffffffff169060200190929190505050610ada565b604051808373ffffffffffffffffffffffffffffffffffffffff1673ffffffffffffffffffffffffffffffffffffffff1681526020018281526020019250505060405180910390f35b6102b66004803603608081101561024057600080fd5b81019080803573ffffffffffffffffffffffffffffffffffffffff169060200190929190803573ffffffffffffffffffffffffffffffffffffffff169060200190929190803573ffffffffffffffffffffffffffffffffffffffff16906020019092919080359060200190929190505050610b1e565b005b6102c0610da3565b604051808273ffffffffffffffffffffffffffffffffffffffff1673ffffffffffffffffffffffffffffffffffffffff16815260200191505060405180910390f35b61032e6004803603602081101561031857600080fd5b8101908080359060200190929190505050610dc9565b604051808673ffffffffffffffffffffffffffffffffffffffff1673ffffffffffffffffffffffffffffffffffffffff1681526020018581526020018481526020018381526020018281526020019550505050505060405180910390f35b61040e600480360360608110156103a257600080fd5b81019080803573ffffffffffffffffffffffffffffffffffffffff169060200190929190803573ffffffffffffffffffffffffffffffffffffffff169060200190929190803573ffffffffffffffffffffffffffffffffffffffff169060200190929190505050610e1f565b005b6104526004803603602081101561042657600080fd5b81019080803573ffffffffffffffffffffffffffffffffffffffff1690602001909291905050506110cf565b604051808673ffffffffffffffffffffffffffffffffffffffff1673ffffffffffffffffffffffffffffffffffffffff1681526020018581526020018481526020018381526020018281526020019550505050505060405180910390f35b61051c600480360360608110156104c657600080fd5b81019080803573ffffffffffffffffffffffffffffffffffffffff169060200190929190803573ffffffffffffffffffffffffffffffffffffffff16906020019092919080359060200190929190505050611125565b005b60003390508073ffffffffffffffffffffffffffffffffffffffff16600160008373ffffffffffffffffffffffffffffffffffffffff1673ffffffffffffffffffffffffffffffffffffffff16815260200190815260200160002060000160009054906101000a900473ffffffffffffffffffffffffffffffffffffffff1673ffffffffffffffffffffffffffffffffffffffff16146105c2576105c181610a18565b5b8273ffffffffffffffffffffffffffffffffffffffff16600160008573ffffffffffffffffffffffffffffffffffffffff1673ffffffffffffffffffffffffffffffffffffffff16815260200190815260200160002060000160009054906101000a900473ffffffffffffffffffffffffffffffffffffffff1673ffffffffffffffffffffffffffffffffffffffff16146106615761066083610a18565b5b8160026000848152602001908152602001600020600101541461068b5761068a84828585610b1e565b5b600060026000848152602001908152602001600020905080600501600160008673ffffffffffffffffffffffffffffffffffffffff1673ffffffffffffffffffffffffffffffffffffffff168152602001908152602001600020908060018154018082558091505090600182039060005260206000209060020201600090919290919091506000820160009054906101000a900473ffffffffffffffffffffffffffffffffffffffff168160000160006101000a81548173ffffffffffffffffffffffffffffffffffffffff021916908373ffffffffffffffffffffffffffffffffffffffff1602179055506001820154816001015550505080600301600081548092919060010191905055508060030154816004016000828254019250508190555060008090505b81600501805490508110156108b45760008260050182815481106107d457fe5b906000526020600020906002020160000160009054906101000a900473ffffffffffffffffffffffffffffffffffffffff16905060008290506000600184018560050180549050039050600082820390508086600501868154811061083557fe5b90600052602060002090600202016001016000828254019250508190555080600160008673ffffffffffffffffffffffffffffffffffffffff1673ffffffffffffffffffffffffffffffffffffffff168152602001908152602001600020600101600082825401925050819055505050505080806001019150506107b4565b5084600460006101000a81548173ffffffffffffffffffffffffffffffffffffffff021916908373ffffffffffffffffffffffffffffffffffffffff160217905550600460009054906101000a900473ffffffffffffffffffffffffffffffffffffffff1673ffffffffffffffffffffffffffffffffffffffff166342842e0e8386866040518463ffffffff1660e01b8152600401808473ffffffffffffffffffffffffffffffffffffffff1673ffffffffffffffffffffffffffffffffffffffff1681526020018373ffffffffffffffffffffffffffffffffffffffff1673ffffffffffffffffffffffffffffffffffffffff1681526020018281526020019350505050600060405180830381600087803b1580156109d357600080fd5b505af11580156109e7573d6000803e3d6000fd5b505050505050505050565b600360009054906101000a900473ffffffffffffffffffffffffffffffffffffffff1681565b60405180604001604052808273ffffffffffffffffffffffffffffffffffffffff1681526020016000815250600160008373ffffffffffffffffffffffffffffffffffffffff1673ffffffffffffffffffffffffffffffffffffffff16815260200190815260200160002060008201518160000160006101000a81548173ffffffffffffffffffffffffffffffffffffffff021916908373ffffffffffffffffffffffffffffffffffffffff1602179055506020820151816001015590505050565b60016020528060005260406000206000915090508060000160009054906101000a900473ffffffffffffffffffffffffffffffffffffffff16908060010154905082565b6000600260008381526020019081526020016000209050848160000160006101000a81548173ffffffffffffffffffffffffffffffffffffffff021916908373ffffffffffffffffffffffffffffffffffffffff160217905550818160010181905550600281600301819055506001816004018190555080600501600160008673ffffffffffffffffffffffffffffffffffffffff1673ffffffffffffffffffffffffffffffffffffffff168152602001908152602001600020908060018154018082558091505090600182039060005260206000209060020201600090919290919091506000820160009054906101000a900473ffffffffffffffffffffffffffffffffffffffff168160000160006101000a81548173ffffffffffffffffffffffffffffffffffffffff021916908373ffffffffffffffffffffffffffffffffffffffff1602179055506001820154816001015550505080600501600160008573ffffffffffffffffffffffffffffffffffffffff1673ffffffffffffffffffffffffffffffffffffffff168152602001908152602001600020908060018154018082558091505090600182039060005260206000209060020201600090919290919091506000820160009054906101000a900473ffffffffffffffffffffffffffffffffffffffff168160000160006101000a81548173ffffffffffffffffffffffffffffffffffffffff021916908373ffffffffffffffffffffffffffffffffffffffff160217905550600182015481600101555050508473ffffffffffffffffffffffffffffffffffffffff167f784c8f4dbf0ffedd6e72c76501c545a70f8b203b30a26ce542bf92ba87c248a460405160405180910390a25050505050565b600460009054906101000a900473ffffffffffffffffffffffffffffffffffffffff1681565b60026020528060005260406000206000915090508060000160009054906101000a900473ffffffffffffffffffffffffffffffffffffffff16908060010154908060020154908060030154908060040154905085565b60008060008573ffffffffffffffffffffffffffffffffffffffff1673ffffffffffffffffffffffffffffffffffffffff1681526020019081526020016000209050838160000160006101000a81548173ffffffffffffffffffffffffffffffffffffffff021916908373ffffffffffffffffffffffffffffffffffffffff16021790555060008160020181905550600281600301819055506001816004018190555080600501600160008573ffffffffffffffffffffffffffffffffffffffff1673ffffffffffffffffffffffffffffffffffffffff168152602001908152602001600020908060018154018082558091505090600182039060005260206000209060020201600090919290919091506000820160009054906101000a900473ffffffffffffffffffffffffffffffffffffffff168160000160006101000a81548173ffffffffffffffffffffffffffffffffffffffff021916908373ffffffffffffffffffffffffffffffffffffffff1602179055506001820154816001015550505080600501600160008473ffffffffffffffffffffffffffffffffffffffff1673ffffffffffffffffffffffffffffffffffffffff168152602001908152602001600020908060018154018082558091505090600182039060005260206000209060020201600090919290919091506000820160009054906101000a900473ffffffffffffffffffffffffffffffffffffffff168160000160006101000a81548173ffffffffffffffffffffffffffffffffffffffff021916908373ffffffffffffffffffffffffffffffffffffffff160217905550600182015481600101555050508373ffffffffffffffffffffffffffffffffffffffff167f784c8f4dbf0ffedd6e72c76501c545a70f8b203b30a26ce542bf92ba87c248a460405160405180910390a250505050565b60006020528060005260406000206000915090508060000160009054906101000a900473ffffffffffffffffffffffffffffffffffffffff16908060010154908060020154908060030154908060040154905085565b60003390508073ffffffffffffffffffffffffffffffffffffffff16600160008373ffffffffffffffffffffffffffffffffffffffff1673ffffffffffffffffffffffffffffffffffffffff16815260200190815260200160002060000160009054906101000a900473ffffffffffffffffffffffffffffffffffffffff1673ffffffffffffffffffffffffffffffffffffffff16146111c9576111c881610a18565b5b8273ffffffffffffffffffffffffffffffffffffffff16600160008573ffffffffffffffffffffffffffffffffffffffff1673ffffffffffffffffffffffffffffffffffffffff16815260200190815260200160002060000160009054906101000a900473ffffffffffffffffffffffffffffffffffffffff1673ffffffffffffffffffffffffffffffffffffffff16146112685761126783610a18565b5b8373ffffffffffffffffffffffffffffffffffffffff166000808673ffffffffffffffffffffffffffffffffffffffff1673ffffffffffffffffffffffffffffffffffffffff16815260200190815260200160002060000160009054906101000a900473ffffffffffffffffffffffffffffffffffffffff1673ffffffffffffffffffffffffffffffffffffffff161461130c57611307848285610e1f565b61145c565b60008060008673ffffffffffffffffffffffffffffffffffffffff1673ffffffffffffffffffffffffffffffffffffffff168152602001908152602001600020905080600501600160008673ffffffffffffffffffffffffffffffffffffffff1673ffffffffffffffffffffffffffffffffffffffff168152602001908152602001600020908060018154018082558091505090600182039060005260206000209060020201600090919290919091506000820160009054906101000a900473ffffffffffffffffffffffffffffffffffffffff168160000160006101000a81548173ffffffffffffffffffffffffffffffffffffffff021916908373ffffffffffffffffffffffffffffffffffffffff16021790555060018201548160010155505050806003016000815480929190600101919050555080600301548160040160008282540192505081905550505b60008060008673ffffffffffffffffffffffffffffffffffffffff1673ffffffffffffffffffffffffffffffffffffffff168152602001908152602001600020905082816002016000828254019250508190555060008090505b81600501805490508110156115b65760008260050182815481106114d657fe5b906000526020600020906002020160000160009054906101000a900473ffffffffffffffffffffffffffffffffffffffff16905060008290506000600184018560050180549050039050600082820390508086600501868154811061153757fe5b90600052602060002090600202016001016000828254019250508190555080600160008673ffffffffffffffffffffffffffffffffffffffff1673ffffffffffffffffffffffffffffffffffffffff168152602001908152602001600020600101600082825401925050819055505050505080806001019150506114b6565b5084600360006101000a81548173ffffffffffffffffffffffffffffffffffffffff021916908373ffffffffffffffffffffffffffffffffffffffff160217905550600360009054906101000a900473ffffffffffffffffffffffffffffffffffffffff1673ffffffffffffffffffffffffffffffffffffffff166323b872dd8386866040518463ffffffff1660e01b8152600401808473ffffffffffffffffffffffffffffffffffffffff1673ffffffffffffffffffffffffffffffffffffffff1681526020018373ffffffffffffffffffffffffffffffffffffffff1673ffffffffffffffffffffffffffffffffffffffff1681526020018281526020019350505050602060405180830381600087803b1580156116d557600080fd5b505af11580156116e9573d6000803e3d6000fd5b505050506040513d60208110156116ff57600080fd5b810190808051906020019092919050505050505050505056fea265627a7a723158200b5be5ef7b4daf500432dc398edb1f5e76d6c9d240e5cff1a7dcfcb7eb629f2264736f6c634300050c0032",
  "source": "pragma solidity 0.5.12;\r\n\r\nimport \"../node_modules/openzeppelin-solidity/contracts/token/ERC20/ERC20.sol\";\r\nimport \"../node_modules/openzeppelin-solidity/contracts/token/ERC721/IERC721.sol\";\r\n\r\n\r\ncontract MTP {\r\n\r\n\r\n    /**\r\n    * @dev Details of each transfer\r\n    * @param contract_ contract address of ER20 token to transfer\r\n    * @param to_ receiving account\r\n    * @param amount_ number of tokens to transfer to_ account\r\n    * @param failed_ if transfer was successful or not */\r\n\r\n    //  struct Transfer {\r\n    //   address contract_;\r\n    //   address to_;\r\n    //   uint amount_;\r\n    //   bool failed_;\r\n    //  }\r\n\r\n    struct Token {\r\n        address token_Address_;\r\n        uint256 token_id_; //for nft tokens\r\n        uint total_Staked_Tokens_;  //update on new stake deposits/withdraws of fungible tokens in/out of mtp network\r\n        uint number_Token_Stakers_;\r\n        uint token_Stake_Balance_;\r\n        Staker[] token_Stakers_; //mapping doesnt support multiple instances of same staker in the stakechain\r\n    }\r\n\r\n    struct Staker { //change to TokenStaker\r\n        address staker_Address_;\r\n        //  uint stakerIndex_;\r\n        int staker_Stake_Balance_; //must support negative integers\r\n    }\r\n\r\n    mapping(address => Token) public tokens;\r\n    mapping(address => Staker) public stakers;\r\n    mapping(uint256 => Token) public nftokens;\r\n\r\n    ERC20 public ERC20Interface;\r\n    IERC721 public ERC721Interface;\r\n\r\n  // constructor() public {  //need to inherit Ownable if used\r\n  //   owner = msg.sender;\r\n  // }\r\n\r\n\r\n    function nfMTPTransfer(address tokenContract_, address to_, uint256 tokenId_) public {\r\n        address from_ = msg.sender;\r\n\r\n        if(stakers[from_].staker_Address_ != from_) {\r\n            addStaker(from_);\r\n        }\r\n\r\n        if(stakers[to_].staker_Address_ != to_) {\r\n            addStaker(to_);\r\n        }\r\n\r\n        if(nftokens[tokenId_].token_id_ != tokenId_) {\r\n            addToken(tokenContract_, from_, to_, tokenId_);\r\n        }\r\n        // else {\r\n        //     Token storage t = nftokens[tokenId_];\r\n        //     t.token_Stakers_.push(stakers[to_]);\r\n        //     t.number_Token_Stakers_ ++;\r\n        //     t.token_Stake_Balance_ += t.number_Token_Stakers_;  //stakes should be abstracted to external contract or global variable?\r\n        // }\r\n\r\n        Token storage t = nftokens[tokenId_];\r\n        t.token_Stakers_.push(stakers[to_]);\r\n        t.number_Token_Stakers_ ++;\r\n        t.token_Stake_Balance_ += t.number_Token_Stakers_;\r\n\r\n        //update bibo balances\r\n        for(uint i = 0; i < t.token_Stakers_.length; i++) {\r\n            address currentStakerAddress = t.token_Stakers_[i].staker_Address_;\r\n            uint stakersBefore = i;\r\n            uint stakersAfter = t.token_Stakers_.length - (i + 1);\r\n            int  stakerNewStakes = int256(stakersAfter) - int256(stakersBefore);\r\n            t.token_Stakers_[i].staker_Stake_Balance_ += stakerNewStakes;\r\n            stakers[currentStakerAddress].staker_Stake_Balance_ += stakerNewStakes;\r\n        }\r\n\r\n        //addToken\r\n        ERC721Interface = IERC721(tokenContract_);\r\n        //ERC721Interface.approve(from_, tokenId_);\r\n        ERC721Interface.safeTransferFrom(from_, to_, tokenId_);\r\n    }\r\n\r\n\r\n    function mtpTransfer(address token_, address to_, uint256 amount_) public {\r\n        address from_ = msg.sender;\r\n\r\n        if(stakers[from_].staker_Address_ != from_) {\r\n            addStaker(from_);\r\n        }\r\n\r\n        if(stakers[to_].staker_Address_ != to_) {\r\n            addStaker(to_);\r\n        }\r\n\r\n\r\n        //Staker storage s = stakers[to_];\r\n        //s.staker_Address_ = to_; not push stakers when stakers already exist\r\n\r\n        if(tokens[token_].token_Address_ != token_) {\r\n            addToken(token_, from_, to_);\r\n        } else {\r\n            Token storage t = tokens[token_];\r\n            t.token_Stakers_.push(stakers[to_]);\r\n            t.number_Token_Stakers_ ++;\r\n            t.token_Stake_Balance_ += t.number_Token_Stakers_;  //stakes should be abstracted to external contract or global variable?\r\n        }\r\n\r\n\r\n        Token storage t = tokens[token_];\r\n        t.total_Staked_Tokens_ += amount_;  //this does not equal the circulating supply since\r\n        //we do not actually index the total number of fungible tokens deposited. but rather #tokens * #transfers\r\n\r\n        //update bibo balances\r\n            for(uint i = 0; i < t.token_Stakers_.length; i++) {\r\n                address currentStakerAddress = t.token_Stakers_[i].staker_Address_;\r\n                uint stakersBefore = i;\r\n                uint stakersAfter = t.token_Stakers_.length - (i + 1);\r\n                int  stakerNewStakes = int256(stakersAfter) - int256(stakersBefore);\r\n                t.token_Stakers_[i].staker_Stake_Balance_ += stakerNewStakes;\r\n                stakers[currentStakerAddress].staker_Stake_Balance_ += stakerNewStakes;\r\n            }\r\n\r\n        ERC20Interface = ERC20(token_);\r\n\r\n        ERC20Interface.transferFrom(from_, to_, amount_);\r\n        //emit mtpTransfer\r\n    }\r\n\r\n    //events\r\n    //tokenAdded\r\n    event TokenAdded(\r\n        address indexed _tokenContract\r\n        //uint indexed _numberOfTokens\r\n        //string indexed _tokenName\r\n        //fungible or nft\r\n        //symbol\r\n        //totalsupply\r\n    );\r\n\r\n\r\n    function addToken(address contractAddress, address tokenSender, address tokenRecipient) public {\r\n        //numTokens++;\r\n        Token storage t_ = tokens[contractAddress];\r\n        t_.token_Address_ = contractAddress;\r\n        t_.total_Staked_Tokens_ = 0;\r\n        t_.number_Token_Stakers_ = 2;\r\n        t_.token_Stake_Balance_ = 1;\r\n        t_.token_Stakers_.push(stakers[tokenSender]); //tokenRecipient should already be initialized as Staker\r\n        t_.token_Stakers_.push(stakers[tokenRecipient]);\r\n        // tokens[contractAddress] = Token(\r\n        //     {\r\n        //         token_Address_: contractAddress,\r\n        //         total_Staked_Tokens_: 0,\r\n        //         number_Token_Stakers_: 0,\r\n        //         token_Stake_Balance_: 0,\r\n        //         token_Stakers_: [Staker(contractAddress, 0)]\r\n        //     }\r\n        // );\r\n        emit TokenAdded(contractAddress);\r\n    }\r\n\r\n    function addToken(address contractAddress, address tokenSender, address tokenRecipient, uint256 tokenId) public {\r\n        Token storage t_ = nftokens[tokenId];\r\n        t_.token_Address_ = contractAddress;\r\n        t_.token_id_ = tokenId;\r\n        //t_.total_Staked_Tokens_ = 0;\r\n        t_.number_Token_Stakers_ = 2;\r\n        t_.token_Stake_Balance_ = 1;\r\n        t_.token_Stakers_.push(stakers[tokenSender]); //tokenRecipient should already be initialized as Staker\r\n        t_.token_Stakers_.push(stakers[tokenRecipient]);\r\n        // tokens[contractAddress] = Token(\r\n        //     {\r\n        //         token_Address_: contractAddress,\r\n        //         total_Staked_Tokens_: 0,\r\n        //         number_Token_Stakers_: 0,\r\n        //         token_Stake_Balance_: 0,\r\n        //         token_Stakers_: [Staker(contractAddress, 0)]\r\n        //     }\r\n        // );\r\n        emit TokenAdded(contractAddress);\r\n    }\r\n\r\n    event StakerAdded(\r\n        address indexed stakerAddress,\r\n        uint indexed numberOfStakers\r\n    );\r\n\r\n    function addStaker(address stakerAddress_) public {\r\n        stakers[stakerAddress_] = Staker(\r\n            {\r\n                staker_Address_: stakerAddress_,\r\n                staker_Stake_Balance_: 0\r\n            }\r\n        );\r\n    }\r\n\r\n}\r\n\r\n//events\r\n  //stakerAdded\r\n  //newMTPTransfer\r\n  //newMTPNetworkDeployed",
  "sourcePath": "C:/Users/wadet/Documents/dapps/er20Controller/ozToken2/contracts/MTP.sol",
  "compiler": {
    "name": "solc",
    "version": "0.5.12+commit.7709ece9.Emscripten.clang"
  },
  "schemaVersion": "3.0.20",
  "updatedAt": "2020-01-26T18:27:50.596Z",
  "devdoc": {
    "methods": {}
  },
  "userdoc": {
    "methods": {}
  }
}